{
  "_format": "hh-sol-artifact-1",
  "contractName": "TradeFinanceFactory",
  "sourceName": "contracts/TradeFinanceFactory.sol",
  "abi": [
    {
      "anonymous": false,
      "inputs": [
        {
          "indexed": false,
          "internalType": "address",
          "name": "TradeFinanceAddress",
          "type": "address"
        }
      ],
      "name": "ActivateLC",
      "type": "event"
    },
    {
      "anonymous": false,
      "inputs": [
        {
          "indexed": false,
          "internalType": "address",
          "name": "TradeFinanceAddress",
          "type": "address"
        }
      ],
      "name": "ApproveLetterOfCredit",
      "type": "event"
    },
    {
      "anonymous": false,
      "inputs": [
        {
          "indexed": false,
          "internalType": "address",
          "name": "TradeFinanceAddress",
          "type": "address"
        },
        {
          "indexed": false,
          "internalType": "address",
          "name": "importer",
          "type": "address"
        },
        {
          "indexed": false,
          "internalType": "address",
          "name": "exporter",
          "type": "address"
        },
        {
          "indexed": false,
          "internalType": "address",
          "name": "issuingBank",
          "type": "address"
        },
        {
          "indexed": false,
          "internalType": "address",
          "name": "advisingBank",
          "type": "address"
        }
      ],
      "name": "CreateLetterOfCredit",
      "type": "event"
    },
    {
      "anonymous": false,
      "inputs": [
        {
          "indexed": false,
          "internalType": "address",
          "name": "TradeFinanceAddress",
          "type": "address"
        }
      ],
      "name": "DeactiveLC",
      "type": "event"
    },
    {
      "anonymous": false,
      "inputs": [
        {
          "indexed": false,
          "internalType": "address",
          "name": "TradeFinanceAddress",
          "type": "address"
        },
        {
          "indexed": false,
          "internalType": "string",
          "name": "documentHash",
          "type": "string"
        }
      ],
      "name": "DocumentUploaded",
      "type": "event"
    },
    {
      "anonymous": false,
      "inputs": [
        {
          "indexed": false,
          "internalType": "address",
          "name": "TradeFinanceAddress",
          "type": "address"
        },
        {
          "indexed": false,
          "internalType": "uint256",
          "name": "value",
          "type": "uint256"
        }
      ],
      "name": "FundEscrowed",
      "type": "event"
    },
    {
      "anonymous": false,
      "inputs": [
        {
          "indexed": false,
          "internalType": "address",
          "name": "TradeFinanceAddress",
          "type": "address"
        }
      ],
      "name": "FundPaid",
      "type": "event"
    },
    {
      "anonymous": false,
      "inputs": [
        {
          "indexed": false,
          "internalType": "address",
          "name": "TradeFinanceAddress",
          "type": "address"
        }
      ],
      "name": "FundRefunded",
      "type": "event"
    },
    {
      "anonymous": false,
      "inputs": [
        {
          "indexed": false,
          "internalType": "address",
          "name": "TradeFinanceAddress",
          "type": "address"
        },
        {
          "indexed": false,
          "internalType": "address",
          "name": "importer",
          "type": "address"
        },
        {
          "indexed": false,
          "internalType": "address",
          "name": "exporter",
          "type": "address"
        },
        {
          "indexed": false,
          "internalType": "address",
          "name": "issuingBank",
          "type": "address"
        },
        {
          "indexed": false,
          "internalType": "address",
          "name": "advisingBank",
          "type": "address"
        }
      ],
      "name": "LcActor",
      "type": "event"
    },
    {
      "anonymous": false,
      "inputs": [
        {
          "indexed": false,
          "internalType": "address",
          "name": "TradeFinanceAddress",
          "type": "address"
        },
        {
          "components": [
            {
              "internalType": "string",
              "name": "description",
              "type": "string"
            },
            {
              "internalType": "string",
              "name": "quantity",
              "type": "string"
            },
            {
              "internalType": "uint256",
              "name": "unit",
              "type": "uint256"
            }
          ],
          "indexed": false,
          "internalType": "struct TradeFinance.Commodity[]",
          "name": "commodity",
          "type": "tuple[]"
        },
        {
          "indexed": false,
          "internalType": "string",
          "name": "price",
          "type": "string"
        },
        {
          "indexed": false,
          "internalType": "string",
          "name": "paymentMethod",
          "type": "string"
        },
        {
          "indexed": false,
          "internalType": "string",
          "name": "additionalInfo",
          "type": "string"
        },
        {
          "indexed": false,
          "internalType": "uint256",
          "name": "deadline",
          "type": "uint256"
        },
        {
          "indexed": false,
          "internalType": "enum TradeFinance.LetterOfCreditStatus",
          "name": "status",
          "type": "uint8"
        },
        {
          "indexed": false,
          "internalType": "string",
          "name": "documentHash",
          "type": "string"
        },
        {
          "components": [
            {
              "internalType": "string",
              "name": "from",
              "type": "string"
            },
            {
              "internalType": "string",
              "name": "to",
              "type": "string"
            },
            {
              "internalType": "bool",
              "name": "partialShipment",
              "type": "bool"
            },
            {
              "internalType": "bool",
              "name": "transhipment",
              "type": "bool"
            },
            {
              "internalType": "uint256",
              "name": "latestShipmentDate",
              "type": "uint256"
            }
          ],
          "indexed": false,
          "internalType": "struct TradeFinance.ShipmentInformation",
          "name": "shipmentInformation",
          "type": "tuple"
        },
        {
          "indexed": false,
          "internalType": "bool",
          "name": "activate",
          "type": "bool"
        },
        {
          "indexed": false,
          "internalType": "address",
          "name": "token",
          "type": "address"
        }
      ],
      "name": "LcInformation",
      "type": "event"
    },
    {
      "anonymous": false,
      "inputs": [
        {
          "indexed": false,
          "internalType": "address",
          "name": "TradeFinanceAddress",
          "type": "address"
        }
      ],
      "name": "RejectLetterOfCredit",
      "type": "event"
    },
    {
      "inputs": [
        {
          "internalType": "address",
          "name": "letterOfCreditAddress",
          "type": "address"
        }
      ],
      "name": "activeLC",
      "outputs": [],
      "stateMutability": "nonpayable",
      "type": "function"
    },
    {
      "inputs": [
        {
          "internalType": "address",
          "name": "letterOfCreditAddress",
          "type": "address"
        }
      ],
      "name": "approveLetterOfCredit",
      "outputs": [],
      "stateMutability": "nonpayable",
      "type": "function"
    },
    {
      "inputs": [
        {
          "internalType": "address",
          "name": "letterOfCreditAddress",
          "type": "address"
        },
        {
          "internalType": "enum TradeFinance.LetterOfCreditStatus",
          "name": "newStatus",
          "type": "uint8"
        }
      ],
      "name": "changeLcStatus",
      "outputs": [],
      "stateMutability": "nonpayable",
      "type": "function"
    },
    {
      "inputs": [
        {
          "components": [
            {
              "internalType": "address",
              "name": "importer",
              "type": "address"
            },
            {
              "internalType": "address",
              "name": "exporter",
              "type": "address"
            },
            {
              "internalType": "address",
              "name": "issuingBank",
              "type": "address"
            },
            {
              "internalType": "address",
              "name": "advisingBank",
              "type": "address"
            },
            {
              "components": [
                {
                  "internalType": "string",
                  "name": "description",
                  "type": "string"
                },
                {
                  "internalType": "string",
                  "name": "quantity",
                  "type": "string"
                },
                {
                  "internalType": "uint256",
                  "name": "unit",
                  "type": "uint256"
                }
              ],
              "internalType": "struct TradeFinance.Commodity[]",
              "name": "commodity",
              "type": "tuple[]"
            },
            {
              "internalType": "string",
              "name": "price",
              "type": "string"
            },
            {
              "internalType": "string",
              "name": "paymentMethod",
              "type": "string"
            },
            {
              "internalType": "string",
              "name": "additionalInfo",
              "type": "string"
            },
            {
              "internalType": "uint256",
              "name": "deadline",
              "type": "uint256"
            },
            {
              "components": [
                {
                  "internalType": "string",
                  "name": "from",
                  "type": "string"
                },
                {
                  "internalType": "string",
                  "name": "to",
                  "type": "string"
                },
                {
                  "internalType": "bool",
                  "name": "partialShipment",
                  "type": "bool"
                },
                {
                  "internalType": "bool",
                  "name": "transhipment",
                  "type": "bool"
                },
                {
                  "internalType": "uint256",
                  "name": "latestShipmentDate",
                  "type": "uint256"
                }
              ],
              "internalType": "struct TradeFinance.ShipmentInformation",
              "name": "shipmentInformation",
              "type": "tuple"
            },
            {
              "internalType": "address",
              "name": "token",
              "type": "address"
            }
          ],
          "internalType": "struct TradeFinanceFactory.CreateLetterOfCreditStruct",
          "name": "newLC",
          "type": "tuple"
        }
      ],
      "name": "createLetterOfCredit",
      "outputs": [
        {
          "internalType": "address",
          "name": "LcAddress",
          "type": "address"
        }
      ],
      "stateMutability": "nonpayable",
      "type": "function"
    },
    {
      "inputs": [
        {
          "internalType": "address",
          "name": "letterOfCreditAddress",
          "type": "address"
        }
      ],
      "name": "deactiveLC",
      "outputs": [],
      "stateMutability": "nonpayable",
      "type": "function"
    },
    {
      "inputs": [
        {
          "internalType": "address",
          "name": "letterOfCreditAddress",
          "type": "address"
        },
        {
          "internalType": "uint256",
          "name": "value",
          "type": "uint256"
        }
      ],
      "name": "escrowFund",
      "outputs": [],
      "stateMutability": "nonpayable",
      "type": "function"
    },
    {
      "inputs": [
        {
          "internalType": "address",
          "name": "letterOfCreditAddress",
          "type": "address"
        }
      ],
      "name": "payFund",
      "outputs": [],
      "stateMutability": "payable",
      "type": "function"
    },
    {
      "inputs": [
        {
          "internalType": "address",
          "name": "letterOfCreditAddress",
          "type": "address"
        }
      ],
      "name": "refundFund",
      "outputs": [],
      "stateMutability": "payable",
      "type": "function"
    },
    {
      "inputs": [
        {
          "internalType": "address",
          "name": "letterOfCreditAddress",
          "type": "address"
        }
      ],
      "name": "rejectLetterOfCredit",
      "outputs": [],
      "stateMutability": "nonpayable",
      "type": "function"
    },
    {
      "inputs": [
        {
          "internalType": "address",
          "name": "LcAddress",
          "type": "address"
        },
        {
          "components": [
            {
              "internalType": "string",
              "name": "description",
              "type": "string"
            },
            {
              "internalType": "string",
              "name": "quantity",
              "type": "string"
            },
            {
              "internalType": "uint256",
              "name": "unit",
              "type": "uint256"
            }
          ],
          "internalType": "struct TradeFinance.Commodity[]",
          "name": "_commodity",
          "type": "tuple[]"
        },
        {
          "internalType": "string",
          "name": "_price",
          "type": "string"
        },
        {
          "internalType": "string",
          "name": "_paymentMethod",
          "type": "string"
        },
        {
          "internalType": "string",
          "name": "_additionalInfo",
          "type": "string"
        },
        {
          "internalType": "uint256",
          "name": "_deadline",
          "type": "uint256"
        },
        {
          "components": [
            {
              "internalType": "string",
              "name": "from",
              "type": "string"
            },
            {
              "internalType": "string",
              "name": "to",
              "type": "string"
            },
            {
              "internalType": "bool",
              "name": "partialShipment",
              "type": "bool"
            },
            {
              "internalType": "bool",
              "name": "transhipment",
              "type": "bool"
            },
            {
              "internalType": "uint256",
              "name": "latestShipmentDate",
              "type": "uint256"
            }
          ],
          "internalType": "struct TradeFinance.ShipmentInformation",
          "name": "_shipmentInformation",
          "type": "tuple"
        },
        {
          "internalType": "address",
          "name": "_tokenAddress",
          "type": "address"
        }
      ],
      "name": "updateLcDetail",
      "outputs": [],
      "stateMutability": "nonpayable",
      "type": "function"
    },
    {
      "inputs": [
        {
          "internalType": "address",
          "name": "letterOfCreditAddress",
          "type": "address"
        },
        {
          "internalType": "string",
          "name": "docHash",
          "type": "string"
        }
      ],
      "name": "uploadDocument",
      "outputs": [],
      "stateMutability": "nonpayable",
      "type": "function"
    }
  ],
  "bytecode": "0x608060405234801561001057600080fd5b50613f25806100206000396000f3fe60806040526004361061009c5760003560e01c806373135d911161006457806373135d911461015257806393555d2a14610172578063a6c81da714610192578063ae8e108f146101a5578063b63aae19146101c5578063b748dfa8146101e557600080fd5b806301f9c02f146100a157806319bc6726146100c357806328db5ce7146100e357806344848303146100f657806353ccafd314610116575b600080fd5b3480156100ad57600080fd5b506100c16100bc366004610ca4565b610205565b005b3480156100cf57600080fd5b506100c16100de366004610e1b565b610271565b6100c16100f1366004610ca4565b61033e565b34801561010257600080fd5b506100c161011136600461102d565b6103c0565b34801561012257600080fd5b50610136610131366004611129565b610521565b6040516001600160a01b03909116815260200160405180910390f35b34801561015e57600080fd5b506100c161016d36600461128d565b6107f3565b34801561017e57600080fd5b506100c161018d366004610ca4565b610a67565b6100c16101a0366004610ca4565b610af6565b3480156101b157600080fd5b506100c16101c0366004610ca4565b610b4f565b3480156101d157600080fd5b506100c16101e03660046112c6565b610b9f565b3480156101f157600080fd5b506100c1610200366004610ca4565b610be0565b6001600160a01b038082166000908152602081905260408082205481516366491a0d60e11b81529151931692839263cc92341a926004808201939182900301818387803b15801561025557600080fd5b505af1158015610269573d6000803e3d6000fd5b505050505050565b6001600160a01b03808316600090815260208190526040908190205490519116907f124f4a6ee6006b9a10fcac9a51b1910a96b2e528b241f3c1b0a5ca12ab860183906102c1908590859061134f565b60405180910390a160405163b7f5576d60e01b81526001600160a01b0382169063b7f5576d906102f590859060040161137b565b6020604051808303816000875af1158015610314573d6000803e3d6000fd5b505050506040513d601f19601f820116820180604052508101906103389190611399565b50505050565b6001600160a01b03808216600090815260208181526040808320548151638974372d60e01b815291519416938493638974372d936004808501949193929183900301908290875af1158015610397573d6000803e3d6000fd5b505050506040513d601f19601f820116820180604052508101906103bb9190611399565b505050565b6001600160a01b03808916600090815260208190526040908190205490516381c5db3d60e01b815291169081906381c5db3d9061040d908b908b908b908b908b908b908b90600401611499565b6020604051808303816000875af115801561042c573d6000803e3d6000fd5b505050506040513d601f19601f820116820180604052508101906104509190611399565b506000816001600160a01b031663c6599a6c6040518163ffffffff1660e01b8152600401600060405180830381865afa158015610491573d6000803e3d6000fd5b505050506040513d6000823e601f3d908101601f191682016040526104b991908101906116ff565b90507fb5197c64993e66df76b5914ba1539d2cf6474b81f5bc8c66a52d3f9379866c2e8a8a8a8a8a8a8761012001518861014001518c8a61018001518d60405161050d9b9a999897969594939291906118c2565b60405180910390a150505050505050505050565b60008060405161053090610c6f565b604051809103906000f08015801561054c573d6000803e3d6000fd5b50835160208501516040808701516060880151608089015160a08a015160c08b015160e08c01516101008d01516101208e01516101408f01519851633a9b824d60e11b81529b9c506001600160a01b038d169b637537049a9b6105bd9b909a90999897969594939291600401611992565b600060405180830381600087803b1580156105d757600080fd5b505af11580156105eb573d6000803e3d6000fd5b5050506001600160a01b03821660008181526020819052604080822080546001600160a01b031916841790558051633196669b60e21b8152905191935063c6599a6c91600480830192869291908290030181865afa158015610651573d6000803e3d6000fd5b505050506040513d6000823e601f3d908101601f1916820160405261067991908101906116ff565b90507f6b167e6d7e8f2ad110e20992f69ce4abad150dc72026f6c35c040dce44ebb4428285600001518660200151876040015188606001516040516106ef9594939291906001600160a01b0395861681529385166020850152918416604084015283166060830152909116608082015260a00190565b60405180910390a17ff0bf3205e54493951462a47454247a2d89ab6221f9a85f5682fed32daaeedf4e82856000015186602001518760400151886060015160405161076b9594939291906001600160a01b0395861681529385166020850152918416604084015283166060830152909116608082015260a00190565b60405180910390a17fb5197c64993e66df76b5914ba1539d2cf6474b81f5bc8c66a52d3f9379866c2e8282608001518360a001518460c001518560e001518661010001518761012001518861014001518961016001518a61018001518b6101a001516040516107e49b9a999897969594939291906118c2565b60405180910390a15092915050565b6001600160a01b03808316600090815260208190526040808220548151633196669b60e21b81529151931692839163c6599a6c91600480830192869291908290030181865afa15801561084a573d6000803e3d6000fd5b505050506040513d6000823e601f3d908101601f1916820160405261087291908101906116ff565b6101a08101516040516370a0823160e01b81523360048201529192509084906001600160a01b038316906370a0823190602401602060405180830381865afa1580156108c2573d6000803e3d6000fd5b505050506040513d601f19601f820116820180604052508101906108e69190611a3e565b10156109385760405162461bcd60e51b815260206004820152601960248201527f62616c616e6365206973206e6f742073756666696369656e7400000000000000604482015260640160405180910390fd5b60405163095ea7b360e01b8152306004820152602481018590526001600160a01b0382169063095ea7b3906044016020604051808303816000875af1158015610985573d6000803e3d6000fd5b505050506040513d601f19601f820116820180604052508101906109a99190611399565b5060405163a9059cbb60e01b81526001600160a01b0386811660048301526024820186905282169063a9059cbb906044016020604051808303816000875af11580156109f9573d6000803e3d6000fd5b505050506040513d601f19601f82011682018060405250810190610a1d9190611399565b50604080516001600160a01b0387168152602081018690527f84cea6fe60d2574c5374aff0c7b171e1d3924871f63bedcc3def5ba52d189378910160405180910390a15050505050565b6001600160a01b03818116600081815260208181526040918290205491519283529216917f11829f71a4f9f8c14327f00a2dd3054b97d263db22899fe65dab1c610a3b47ce910160405180910390a1806001600160a01b031663827e1adc6040518163ffffffff1660e01b81526004016020604051808303816000875af1158015610397573d6000803e3d6000fd5b6001600160a01b03808216600090815260208181526040808320548151631015e82160e11b81529151941693849363202bd042936004808501949193929183900301908290875af1158015610397573d6000803e3d6000fd5b6001600160a01b03808216600090815260208190526040808220548151634172bbe160e01b815291519316928392634172bbe1926004808201939182900301818387803b15801561025557600080fd5b6001600160a01b038083166000908152602081905260409081902054905163eafda55f60e01b8152911690819063eafda55f906102f5908590600401611a57565b6001600160a01b03818116600081815260208181526040918290205491519283529216917f730c6a2b1518e74d0c2eaa41a5aebf4118a3a896b61ecf427ac75d9c329af3c4910160405180910390a1806001600160a01b03166315b49e406040518163ffffffff1660e01b81526004016020604051808303816000875af1158015610397573d6000803e3d6000fd5b61248480611a6c83390190565b6001600160a01b0381168114610c9157600080fd5b50565b8035610c9f81610c7c565b919050565b600060208284031215610cb657600080fd5b8135610cc181610c7c565b9392505050565b634e487b7160e01b600052604160045260246000fd5b604051606081016001600160401b0381118282101715610d0057610d00610cc8565b60405290565b60405160a081016001600160401b0381118282101715610d0057610d00610cc8565b60405161016081016001600160401b0381118282101715610d0057610d00610cc8565b6040516101c081016001600160401b0381118282101715610d0057610d00610cc8565b604051601f8201601f191681016001600160401b0381118282101715610d9657610d96610cc8565b604052919050565b60006001600160401b03821115610db757610db7610cc8565b50601f01601f191660200190565b600082601f830112610dd657600080fd5b8135610de9610de482610d9e565b610d6e565b818152846020838601011115610dfe57600080fd5b816020850160208301376000918101602001919091529392505050565b60008060408385031215610e2e57600080fd5b8235610e3981610c7c565b915060208301356001600160401b03811115610e5457600080fd5b610e6085828601610dc5565b9150509250929050565b60006001600160401b03821115610e8357610e83610cc8565b5060051b60200190565b600082601f830112610e9e57600080fd5b81356020610eae610de483610e6a565b82815260059290921b84018101918181019086841115610ecd57600080fd5b8286015b84811015610f745780356001600160401b0380821115610ef15760008081fd5b908801906060828b03601f1901811315610f0b5760008081fd5b610f13610cde565b8784013583811115610f255760008081fd5b610f338d8a83880101610dc5565b82525060408085013584811115610f4a5760008081fd5b610f588e8b83890101610dc5565b8a84015250919093013590830152508352918301918301610ed1565b509695505050505050565b8015158114610c9157600080fd5b600060a08284031215610f9f57600080fd5b610fa7610d06565b905081356001600160401b0380821115610fc057600080fd5b610fcc85838601610dc5565b83526020840135915080821115610fe257600080fd5b50610fef84828501610dc5565b602083015250604082013561100381610f7f565b6040820152606082013561101681610f7f565b806060830152506080820135608082015292915050565b600080600080600080600080610100898b03121561104a57600080fd5b61105389610c94565b975060208901356001600160401b038082111561106f57600080fd5b61107b8c838d01610e8d565b985060408b013591508082111561109157600080fd5b61109d8c838d01610dc5565b975060608b01359150808211156110b357600080fd5b6110bf8c838d01610dc5565b965060808b01359150808211156110d557600080fd5b6110e18c838d01610dc5565b955060a08b0135945060c08b01359150808211156110fe57600080fd5b5061110b8b828c01610f8d565b92505061111a60e08a01610c94565b90509295985092959890939650565b60006020828403121561113b57600080fd5b81356001600160401b038082111561115257600080fd5b90830190610160828603121561116757600080fd5b61116f610d28565b61117883610c94565b815261118660208401610c94565b602082015261119760408401610c94565b60408201526111a860608401610c94565b60608201526080830135828111156111bf57600080fd5b6111cb87828601610e8d565b60808301525060a0830135828111156111e357600080fd5b6111ef87828601610dc5565b60a08301525060c08301358281111561120757600080fd5b61121387828601610dc5565b60c08301525060e08301358281111561122b57600080fd5b61123787828601610dc5565b60e0830152506101008381013590820152610120808401358381111561125c57600080fd5b61126888828701610f8d565b828401525050610140915061127e828401610c94565b91810191909152949350505050565b600080604083850312156112a057600080fd5b82356112ab81610c7c565b946020939093013593505050565b60098110610c9157600080fd5b600080604083850312156112d957600080fd5b82356112e481610c7c565b915060208301356112f4816112b9565b809150509250929050565b60005b8381101561131a578181015183820152602001611302565b50506000910152565b6000815180845261133b8160208601602086016112ff565b601f01601f19169290920160200192915050565b6001600160a01b038316815260406020820181905260009061137390830184611323565b949350505050565b602081526000610cc16020830184611323565b8051610c9f81610f7f565b6000602082840312156113ab57600080fd5b8151610cc181610f7f565b600081518084526020808501808196508360051b8101915082860160005b8581101561142f5782840389528151606081518187526113f682880182611323565b915050868201518682038888015261140e8282611323565b604093840151979093019690965250988501989350908401906001016113d4565b5091979650505050505050565b6000815160a0845261145160a0850182611323565b90506020830151848203602086015261146a8282611323565b915050604083015115156040850152606083015115156060850152608083015160808501528091505092915050565b60e0815260006114ac60e083018a6113b6565b82810360208401526114be818a611323565b905082810360408401526114d28189611323565b905082810360608401526114e68188611323565b905085608084015282810360a0840152611500818661143c565b91505060018060a01b03831660c083015298975050505050505050565b8051610c9f81610c7c565b600082601f83011261153957600080fd5b8151611547610de482610d9e565b81815284602083860101111561155c57600080fd5b6113738260208301602087016112ff565b600082601f83011261157e57600080fd5b8151602061158e610de483610e6a565b82815260059290921b840181019181810190868411156115ad57600080fd5b8286015b84811015610f745780516001600160401b03808211156115d15760008081fd5b908801906060828b03601f19018113156115eb5760008081fd5b6115f3610cde565b87840151838111156116055760008081fd5b6116138d8a83880101611528565b8252506040808501518481111561162a5760008081fd5b6116388e8b83890101611528565b8a840152509190930151908301525083529183019183016115b1565b8051610c9f816112b9565b600060a0828403121561167157600080fd5b611679610d06565b905081516001600160401b038082111561169257600080fd5b61169e85838601611528565b835260208401519150808211156116b457600080fd5b506116c184828501611528565b60208301525060408201516116d581610f7f565b604082015260608201516116e881610f7f565b806060830152506080820151608082015292915050565b60006020828403121561171157600080fd5b81516001600160401b038082111561172857600080fd5b908301906101c0828603121561173d57600080fd5b611745610d4b565b61174e8361151d565b815261175c6020840161151d565b602082015261176d6040840161151d565b604082015261177e6060840161151d565b606082015260808301518281111561179557600080fd5b6117a18782860161156d565b60808301525060a0830151828111156117b957600080fd5b6117c587828601611528565b60a08301525060c0830151828111156117dd57600080fd5b6117e987828601611528565b60c08301525060e08301518281111561180157600080fd5b61180d87828601611528565b60e083015250610100838101519082015261012061182c818501611654565b90820152610140838101518381111561184457600080fd5b61185088828701611528565b828401525050610160808401518381111561186a57600080fd5b6118768882870161165f565b828401525050610180915061188c82840161138e565b828201526101a0915061127e82840161151d565b600981106118be57634e487b7160e01b600052602160045260246000fd5b9052565b6001600160a01b038c168152610160602082018190526000906118e78382018e6113b6565b905082810360408401526118fb818d611323565b9050828103606084015261190f818c611323565b90508281036080840152611923818b611323565b90508860a084015261193860c08401896118a0565b82810360e084015261194a8188611323565b905082810361010084015261195f818761143c565b91505061197161012083018515159052565b6001600160a01b0383166101408301525b9c9b505050505050505050505050565b6001600160a01b038c811682528b811660208301528a811660408301528916606082015260006101608060808401526119cd8184018b6113b6565b905082810360a08401526119e1818a611323565b905082810360c08401526119f58189611323565b905082810360e0840152611a098188611323565b905085610100840152828103610120840152611a25818661143c565b9150506119826101408301846001600160a01b03169052565b600060208284031215611a5057600080fd5b5051919050565b60208101611a6582846118a0565b9291505056fe608060405234801561001057600080fd5b50612464806100206000396000f3fe6080604052600436106101435760003560e01c8063827e1adc116100b0578063c6599a6c1161006c578063c6599a6c146103ba578063cc92341a146103dc578063d547741f146103f1578063e5a5a58314610411578063eafda55f14610431578063f2a6a2411461045157005b8063827e1adc146103265780638974372d1461033b57806391d14854146103435780639a4cff4a14610363578063a217fddf14610385578063b7f5576d1461039a57005b80634172bbe1116100ff5780634172bbe11461021c578063533380d3146102315780636fa2a067146102655780637537049a146102995780637e69dae0146102b957806381c5db3d1461030657005b806301ffc9a71461014c57806315b49e4014610181578063202bd04214610196578063248a9ca31461019e5780632f2ff15d146101dc57806336568abe146101fc57005b3661014a57005b005b34801561015857600080fd5b5061016c6101673660046118fe565b610485565b60405190151581526020015b60405180910390f35b34801561018d57600080fd5b5061016c6104bc565b61016c6104d5565b3480156101aa57600080fd5b506101ce6101b9366004611928565b60009081526020819052604090206001015490565b604051908152602001610178565b3480156101e857600080fd5b5061014a6101f736600461195d565b61053f565b34801561020857600080fd5b5061014a61021736600461195d565b610569565b34801561022857600080fd5b5061014a6105ec565b34801561023d57600080fd5b506101ce7f2515f00f7991fb05142cea33108a7d4f68a0eecf9f9447d60a5227f3a62078c081565b34801561027157600080fd5b506101ce7f9dd0c3bd9bb5e1c820c362d05d5cb38480246edb10ff416751bc3dcaccab86fe81565b3480156102a557600080fd5b5061014a6102b4366004611c34565b610614565b3480156102c557600080fd5b50600254600354600454600554604080516001600160a01b039586168152938516602085015291841691830191909152919091166060820152608001610178565b34801561031257600080fd5b5061016c610321366004611d6d565b6108e8565b34801561033257600080fd5b5061016c610ab6565b61016c610acc565b34801561034f57600080fd5b5061016c61035e36600461195d565b610af1565b34801561036f57600080fd5b506101ce60008051602061240f83398151915281565b34801561039157600080fd5b506101ce600081565b3480156103a657600080fd5b5061016c6103b5366004611e59565b610b1a565b3480156103c657600080fd5b506103cf610b2e565b6040516101789190611ff9565b3480156103e857600080fd5b5061014a611116565b3480156103fd57600080fd5b5061014a61040c36600461195d565b61113b565b34801561041d57600080fd5b5061016c61042c366004611928565b611160565b34801561043d57600080fd5b5061016c61044c366004612164565b611225565b34801561045d57600080fd5b506101ce7faf60a13a1620ed8606730e7105f2af60851db04bb2ce1a068e80262de457512a81565b60006001600160e01b03198216637965db0b60e01b14806104b657506301ffc9a760e01b6001600160e01b03198316145b92915050565b600b805460009160019160ff191682805b021790555090565b6011546002546000916104fa916001600160a01b036101009092048216911634611253565b60025460405134815230916001600160a01b0316907fddf252ad1be2c89b69c2b068fc378daa952ba7f163c4a11628f55a4df523b3ef9060200160405180910390a390565b60008281526020819052604090206001015461055a816112b6565b61056483836112c3565b505050565b6001600160a01b03811633146105de5760405162461bcd60e51b815260206004820152602f60248201527f416363657373436f6e74726f6c3a2063616e206f6e6c792072656e6f756e636560448201526e103937b632b9903337b91039b2b63360891b60648201526084015b60405180910390fd5b6105e88282611347565b5050565b60008051602061240f833981519152610604816112b6565b506011805460ff19166001179055565b600280546001600160a01b03808e166001600160a01b03199283168117909355600380548e8316908416179055600480548d831690841617905560058054918c1691909216179055610687907f9dd0c3bd9bb5e1c820c362d05d5cb38480246edb10ff416751bc3dcaccab86fe906112c3565b6003546106be907faf60a13a1620ed8606730e7105f2af60851db04bb2ce1a068e80262de457512a906001600160a01b03166112c3565b6004546106e39060008051602061240f833981519152906001600160a01b03166112c3565b60055461071a907f2515f00f7991fb05142cea33108a7d4f68a0eecf9f9447d60a5227f3a62078c0906001600160a01b03166112c3565b60005b87518110156108355761074a60405180606001604052806060815260200160608152602001600081525090565b88828151811061075c5761075c612185565b6020908102919091010151518152885189908390811061077e5761077e612185565b60200260200101516020015181602001819052508882815181106107a4576107a4612185565b60209081029190910101516040908101519082015260068054600181018255600091909152815182916003027ff652222313e28459528d920b65115c16c04f3efc82aaedc97be59f3f377c0d3f019081906107ff908261221d565b5060208201516001820190610814908261221d565b5060408201518160020155505050808061082d906122f3565b91505061071d565b506007610842878261221d565b50600861084f868261221d565b50600961085c858261221d565b50600a8390558151600d90610871908261221d565b506020820151600e90610884908261221d565b5060808201516010556040820151600f805460609094015161ffff1990941691151561ff001916919091176101009315158402179055601180546001600160a81b0319166001600160a01b0392909216909202176001179055505050505050505050565b6000805b8851811015610a045761091960405180606001604052806060815260200160608152602001600081525090565b89828151811061092b5761092b612185565b602090810291909101015151815289518a908390811061094d5761094d612185565b602002602001015160200151816020018190525089828151811061097357610973612185565b60209081029190910101516040908101519082015260068054600181018255600091909152815182916003027ff652222313e28459528d920b65115c16c04f3efc82aaedc97be59f3f377c0d3f019081906109ce908261221d565b50602082015160018201906109e3908261221d565b506040820151816002015550505080806109fc906122f3565b9150506108ec565b506007610a11888261221d565b506008610a1e878261221d565b506009610a2b868261221d565b50600a8490558251600d90610a40908261221d565b506020830151600e90610a53908261221d565b505060808201516010556040820151600f805460609094015161ffff1990941691151561ff00191691909117610100931515840217905560118054610100600160a81b0319166001600160a01b0392909216909202179055506001949350505050565b600b805460009160029160ff19166001836104cd565b6011546003546000916104fa916001600160a01b036101009092048216911634611253565b6000918252602082815260408084206001600160a01b0393909316845291905290205460ff1690565b6000600c610b28838261221d565b50919050565b610b3661185a565b604080516101c081018252600280546001600160a01b03908116835260035481166020808501919091526004548216848601526005549091166060840152600680548551818402810184019096528086529394929360808601939260009084015b82821015610cf75783829060005260206000209060030201604051806060016040529081600082018054610bca9061219b565b80601f0160208091040260200160405190810160405280929190818152602001828054610bf69061219b565b8015610c435780601f10610c1857610100808354040283529160200191610c43565b820191906000526020600020905b815481529060010190602001808311610c2657829003601f168201915b50505050508152602001600182018054610c5c9061219b565b80601f0160208091040260200160405190810160405280929190818152602001828054610c889061219b565b8015610cd55780601f10610caa57610100808354040283529160200191610cd5565b820191906000526020600020905b815481529060010190602001808311610cb857829003601f168201915b5050505050815260200160028201548152505081526020019060010190610b97565b505050508152602001600582018054610d0f9061219b565b80601f0160208091040260200160405190810160405280929190818152602001828054610d3b9061219b565b8015610d885780601f10610d5d57610100808354040283529160200191610d88565b820191906000526020600020905b815481529060010190602001808311610d6b57829003601f168201915b50505050508152602001600682018054610da19061219b565b80601f0160208091040260200160405190810160405280929190818152602001828054610dcd9061219b565b8015610e1a5780601f10610def57610100808354040283529160200191610e1a565b820191906000526020600020905b815481529060010190602001808311610dfd57829003601f168201915b50505050508152602001600782018054610e339061219b565b80601f0160208091040260200160405190810160405280929190818152602001828054610e5f9061219b565b8015610eac5780601f10610e8157610100808354040283529160200191610eac565b820191906000526020600020905b815481529060010190602001808311610e8f57829003601f168201915b50505091835250506008828101546020830152600983015460409092019160ff1690811115610edd57610edd611f64565b6008811115610eee57610eee611f64565b8152602001600a82018054610f029061219b565b80601f0160208091040260200160405190810160405280929190818152602001828054610f2e9061219b565b8015610f7b5780601f10610f5057610100808354040283529160200191610f7b565b820191906000526020600020905b815481529060010190602001808311610f5e57829003601f168201915b50505050508152602001600b82016040518060a0016040529081600082018054610fa49061219b565b80601f0160208091040260200160405190810160405280929190818152602001828054610fd09061219b565b801561101d5780601f10610ff25761010080835404028352916020019161101d565b820191906000526020600020905b81548152906001019060200180831161100057829003601f168201915b505050505081526020016001820180546110369061219b565b80601f01602080910402602001604051908101604052809291908181526020018280546110629061219b565b80156110af5780601f10611084576101008083540402835291602001916110af565b820191906000526020600020905b81548152906001019060200180831161109257829003601f168201915b5050509183525050600282015460ff80821615156020808501919091526101009283900482161515604080860191909152600390950154606090940193909352938552600f95909501549283161515908401529290046001600160a01b0316910152919050565b60008051602061240f83398151915261112e816112b6565b506011805460ff19169055565b600082815260208190526040902060010154611156816112b6565b6105648383611347565b6002546000906001600160a01b031632146111bd5760405162461bcd60e51b815260206004820152601d60248201527f4f6e6c7920696d706f727465722063616e20657363726f772066756e6400000060448201526064016105d5565b60115461010090046001600160a01b03166111da813230866113ac565b60025460405184815230916001600160a01b0316907fddf252ad1be2c89b69c2b068fc378daa952ba7f163c4a11628f55a4df523b3ef9060200160405180910390a350600192915050565b600b8054600091839160ff1916600183600881111561124657611246611f64565b0217905550600192915050565b6040516001600160a01b03831660248201526044810182905261056490849063a9059cbb60e01b906064015b60408051601f198184030181529190526020810180516001600160e01b03166001600160e01b0319909316929092179091526113ea565b6112c081336114bc565b50565b6112cd8282610af1565b6105e8576000828152602081815260408083206001600160a01b03851684529091529020805460ff191660011790556113033390565b6001600160a01b0316816001600160a01b0316837f2f8788117e7eff1d82e926ec794901d17c78024a50270940304540a733656f0d60405160405180910390a45050565b6113518282610af1565b156105e8576000828152602081815260408083206001600160a01b0385168085529252808320805460ff1916905551339285917ff6391f5c32d9c69d2a47ea670b442974b53935d1edc7fd64eb21e047a839171b9190a45050565b6040516001600160a01b03808516602483015283166044820152606481018290526113e49085906323b872dd60e01b9060840161127f565b50505050565b600061143f826040518060400160405280602081526020017f5361666545524332303a206c6f772d6c6576656c2063616c6c206661696c6564815250856001600160a01b03166115159092919063ffffffff16565b805190915015610564578080602001905181019061145d919061230c565b6105645760405162461bcd60e51b815260206004820152602a60248201527f5361666545524332303a204552433230206f7065726174696f6e20646964206e6044820152691bdd081cdd58d8d9595960b21b60648201526084016105d5565b6114c68282610af1565b6105e8576114d38161152c565b6114de83602061153e565b6040516020016114ef929190612329565b60408051601f198184030181529082905262461bcd60e51b82526105d59160040161239e565b606061152484846000856116e1565b949350505050565b60606104b66001600160a01b03831660145b6060600061154d8360026123b1565b6115589060026123c8565b67ffffffffffffffff81111561157057611570611989565b6040519080825280601f01601f19166020018201604052801561159a576020820181803683370190505b509050600360fc1b816000815181106115b5576115b5612185565b60200101906001600160f81b031916908160001a905350600f60fb1b816001815181106115e4576115e4612185565b60200101906001600160f81b031916908160001a90535060006116088460026123b1565b6116139060016123c8565b90505b600181111561168b576f181899199a1a9b1b9c1cb0b131b232b360811b85600f166010811061164757611647612185565b1a60f81b82828151811061165d5761165d612185565b60200101906001600160f81b031916908160001a90535060049490941c93611684816123db565b9050611616565b5083156116da5760405162461bcd60e51b815260206004820181905260248201527f537472696e67733a20686578206c656e67746820696e73756666696369656e7460448201526064016105d5565b9392505050565b6060824710156117425760405162461bcd60e51b815260206004820152602660248201527f416464726573733a20696e73756666696369656e742062616c616e636520666f6044820152651c8818d85b1b60d21b60648201526084016105d5565b600080866001600160a01b0316858760405161175e91906123f2565b60006040518083038185875af1925050503d806000811461179b576040519150601f19603f3d011682016040523d82523d6000602084013e6117a0565b606091505b50915091506117b1878383876117bc565b979650505050505050565b6060831561182b578251600003611824576001600160a01b0385163b6118245760405162461bcd60e51b815260206004820152601d60248201527f416464726573733a2063616c6c20746f206e6f6e2d636f6e747261637400000060448201526064016105d5565b5081611524565b61152483838151156118405781518083602001fd5b8060405162461bcd60e51b81526004016105d5919061239e565b604080516101c08101825260008082526020820181905291810182905260608082018390526080820181905260a0820181905260c0820181905260e08201526101008101829052906101208201908152602001606081526020016118ea6040518060a001604052806060815260200160608152602001600015158152602001600015158152602001600081525090565b815260006020820181905260409091015290565b60006020828403121561191057600080fd5b81356001600160e01b0319811681146116da57600080fd5b60006020828403121561193a57600080fd5b5035919050565b80356001600160a01b038116811461195857600080fd5b919050565b6000806040838503121561197057600080fd5b8235915061198060208401611941565b90509250929050565b634e487b7160e01b600052604160045260246000fd5b6040516060810167ffffffffffffffff811182821017156119c2576119c2611989565b60405290565b604051601f8201601f1916810167ffffffffffffffff811182821017156119f1576119f1611989565b604052919050565b600082601f830112611a0a57600080fd5b813567ffffffffffffffff811115611a2457611a24611989565b611a37601f8201601f19166020016119c8565b818152846020838601011115611a4c57600080fd5b816020850160208301376000918101602001919091529392505050565b600082601f830112611a7a57600080fd5b8135602067ffffffffffffffff80831115611a9757611a97611989565b8260051b611aa68382016119c8565b9384528581018301938381019088861115611ac057600080fd5b84880192505b85831015611b6057823584811115611ade5760008081fd5b88016060818b03601f1901811315611af65760008081fd5b611afe61199f565b8783013587811115611b105760008081fd5b611b1e8d8a838701016119f9565b82525060408084013588811115611b355760008081fd5b611b438e8b838801016119f9565b8a8401525091909201359082015282529184019190840190611ac6565b98975050505050505050565b80151581146112c057600080fd5b600060a08284031215611b8c57600080fd5b60405160a0810167ffffffffffffffff8282108183111715611bb057611bb0611989565b816040528293508435915080821115611bc857600080fd5b611bd4868387016119f9565b83526020850135915080821115611bea57600080fd5b50611bf7858286016119f9565b6020830152506040830135611c0b81611b6c565b60408201526060830135611c1e81611b6c565b6060820152608092830135920191909152919050565b60008060008060008060008060008060006101608c8e031215611c5657600080fd5b611c5f8c611941565b9a50611c6d60208d01611941565b9950611c7b60408d01611941565b9850611c8960608d01611941565b975067ffffffffffffffff8060808e01351115611ca557600080fd5b611cb58e60808f01358f01611a69565b97508060a08e01351115611cc857600080fd5b611cd88e60a08f01358f016119f9565b96508060c08e01351115611ceb57600080fd5b611cfb8e60c08f01358f016119f9565b95508060e08e01351115611d0e57600080fd5b611d1e8e60e08f01358f016119f9565b94506101008d01359350806101208e01351115611d3a57600080fd5b50611d4c8d6101208e01358e01611b7a565b9150611d5b6101408d01611941565b90509295989b509295989b9093969950565b600080600080600080600060e0888a031215611d8857600080fd5b873567ffffffffffffffff80821115611da057600080fd5b611dac8b838c01611a69565b985060208a0135915080821115611dc257600080fd5b611dce8b838c016119f9565b975060408a0135915080821115611de457600080fd5b611df08b838c016119f9565b965060608a0135915080821115611e0657600080fd5b611e128b838c016119f9565b955060808a0135945060a08a0135915080821115611e2f57600080fd5b50611e3c8a828b01611b7a565b925050611e4b60c08901611941565b905092959891949750929550565b600060208284031215611e6b57600080fd5b813567ffffffffffffffff811115611e8257600080fd5b611524848285016119f9565b60005b83811015611ea9578181015183820152602001611e91565b50506000910152565b60008151808452611eca816020860160208601611e8e565b601f01601f19169290920160200192915050565b600081518084526020808501808196508360051b8101915082860160005b85811015611f57578284038952815160608151818752611f1e82880182611eb2565b9150508682015186820388880152611f368282611eb2565b60409384015197909301969096525098850198935090840190600101611efc565b5091979650505050505050565b634e487b7160e01b600052602160045260246000fd5b60098110611f9857634e487b7160e01b600052602160045260246000fd5b9052565b6000815160a08452611fb160a0850182611eb2565b905060208301518482036020860152611fca8282611eb2565b915050604083015115156040850152606083015115156060850152608083015160808501528091505092915050565b602081526120136020820183516001600160a01b03169052565b6000602083015161202f60408401826001600160a01b03169052565b5060408301516001600160a01b03811660608401525060608301516001600160a01b03811660808401525060808301516101c08060a08501526120766101e0850183611ede565b915060a0850151601f19808685030160c08701526120948483611eb2565b935060c08701519150808685030160e08701526120b18483611eb2565b935060e087015191506101008187860301818801526120d08584611eb2565b908801516101208881019190915288015190945091506101406120f581880184611f7a565b808801519250506101608187860301818801526121128584611eb2565b9450808801519250506101808187860301818801526121318584611f9c565b945080880151925050506101a061214b8187018315159052565b909501516001600160a01b031693019290925250919050565b60006020828403121561217657600080fd5b8135600981106116da57600080fd5b634e487b7160e01b600052603260045260246000fd5b600181811c908216806121af57607f821691505b602082108103610b2857634e487b7160e01b600052602260045260246000fd5b601f82111561056457600081815260208120601f850160051c810160208610156121f65750805b601f850160051c820191505b8181101561221557828155600101612202565b505050505050565b815167ffffffffffffffff81111561223757612237611989565b61224b81612245845461219b565b846121cf565b602080601f83116001811461228057600084156122685750858301515b600019600386901b1c1916600185901b178555612215565b600085815260208120601f198616915b828110156122af57888601518255948401946001909101908401612290565b50858210156122cd5787850151600019600388901b60f8161c191681555b5050505050600190811b01905550565b634e487b7160e01b600052601160045260246000fd5b600060018201612305576123056122dd565b5060010190565b60006020828403121561231e57600080fd5b81516116da81611b6c565b7f416363657373436f6e74726f6c3a206163636f756e7420000000000000000000815260008351612361816017850160208801611e8e565b7001034b99036b4b9b9b4b733903937b6329607d1b6017918401918201528351612392816028840160208801611e8e565b01602801949350505050565b6020815260006116da6020830184611eb2565b80820281158282048414176104b6576104b66122dd565b808201808211156104b6576104b66122dd565b6000816123ea576123ea6122dd565b506000190190565b60008251612404818460208701611e8e565b919091019291505056fe0d49143a5f9940ca3162cb41c8944ad395f12ca76d9ebea0f567e338666ae0e6a2646970667358221220c922d74316445786213f3bcafd4b9a41015dce7862ff973a1d5e73925da27f3d64736f6c63430008120033a264697066735822122038a55a727283ff76784b8ff6781450a5c5d563569a179c79c8669be5a8ef37d164736f6c63430008120033",
  "linkReferences": {},
  "deployedLinkReferences": {}
}